{"abi":[{"type":"constructor","inputs":[{"name":"_marketingWallet","type":"address","internalType":"address"}],"stateMutability":"nonpayable"},{"type":"function","name":"DEAD_WALLET","inputs":[],"outputs":[{"name":"","type":"address","internalType":"address"}],"stateMutability":"view"},{"type":"function","name":"TOTAL_SUPPLY","inputs":[],"outputs":[{"name":"","type":"uint256","internalType":"uint256"}],"stateMutability":"view"},{"type":"function","name":"allowance","inputs":[{"name":"owner","type":"address","internalType":"address"},{"name":"spender","type":"address","internalType":"address"}],"outputs":[{"name":"","type":"uint256","internalType":"uint256"}],"stateMutability":"view"},{"type":"function","name":"approve","inputs":[{"name":"spender","type":"address","internalType":"address"},{"name":"value","type":"uint256","internalType":"uint256"}],"outputs":[{"name":"","type":"bool","internalType":"bool"}],"stateMutability":"nonpayable"},{"type":"function","name":"balanceOf","inputs":[{"name":"account","type":"address","internalType":"address"}],"outputs":[{"name":"","type":"uint256","internalType":"uint256"}],"stateMutability":"view"},{"type":"function","name":"buyTax","inputs":[],"outputs":[{"name":"","type":"uint256","internalType":"uint256"}],"stateMutability":"view"},{"type":"function","name":"decimals","inputs":[],"outputs":[{"name":"","type":"uint8","internalType":"uint8"}],"stateMutability":"view"},{"type":"function","name":"excludeFromTax","inputs":[{"name":"account","type":"address","internalType":"address"},{"name":"excluded","type":"bool","internalType":"bool"}],"outputs":[],"stateMutability":"nonpayable"},{"type":"function","name":"isExcludedFromTax","inputs":[{"name":"","type":"address","internalType":"address"}],"outputs":[{"name":"","type":"bool","internalType":"bool"}],"stateMutability":"view"},{"type":"function","name":"marketingWallet","inputs":[],"outputs":[{"name":"","type":"address","internalType":"address"}],"stateMutability":"view"},{"type":"function","name":"name","inputs":[],"outputs":[{"name":"","type":"string","internalType":"string"}],"stateMutability":"view"},{"type":"function","name":"owner","inputs":[],"outputs":[{"name":"","type":"address","internalType":"address"}],"stateMutability":"view"},{"type":"function","name":"renounceOwnership","inputs":[],"outputs":[],"stateMutability":"nonpayable"},{"type":"function","name":"sellTax","inputs":[],"outputs":[{"name":"","type":"uint256","internalType":"uint256"}],"stateMutability":"view"},{"type":"function","name":"setTax","inputs":[{"name":"_buyTax","type":"uint256","internalType":"uint256"},{"name":"_sellTax","type":"uint256","internalType":"uint256"}],"outputs":[],"stateMutability":"nonpayable"},{"type":"function","name":"symbol","inputs":[],"outputs":[{"name":"","type":"string","internalType":"string"}],"stateMutability":"view"},{"type":"function","name":"totalSupply","inputs":[],"outputs":[{"name":"","type":"uint256","internalType":"uint256"}],"stateMutability":"view"},{"type":"function","name":"transfer","inputs":[{"name":"to","type":"address","internalType":"address"},{"name":"value","type":"uint256","internalType":"uint256"}],"outputs":[{"name":"","type":"bool","internalType":"bool"}],"stateMutability":"nonpayable"},{"type":"function","name":"transferFrom","inputs":[{"name":"from","type":"address","internalType":"address"},{"name":"to","type":"address","internalType":"address"},{"name":"value","type":"uint256","internalType":"uint256"}],"outputs":[{"name":"","type":"bool","internalType":"bool"}],"stateMutability":"nonpayable"},{"type":"function","name":"transferOwnership","inputs":[{"name":"newOwner","type":"address","internalType":"address"}],"outputs":[],"stateMutability":"nonpayable"},{"type":"event","name":"Approval","inputs":[{"name":"owner","type":"address","indexed":true,"internalType":"address"},{"name":"spender","type":"address","indexed":true,"internalType":"address"},{"name":"value","type":"uint256","indexed":false,"internalType":"uint256"}],"anonymous":false},{"type":"event","name":"OwnershipTransferred","inputs":[{"name":"previousOwner","type":"address","indexed":true,"internalType":"address"},{"name":"newOwner","type":"address","indexed":true,"internalType":"address"}],"anonymous":false},{"type":"event","name":"TaxDistributed","inputs":[{"name":"holdersAmount","type":"uint256","indexed":false,"internalType":"uint256"},{"name":"marketingAmount","type":"uint256","indexed":false,"internalType":"uint256"},{"name":"burnAmount","type":"uint256","indexed":false,"internalType":"uint256"}],"anonymous":false},{"type":"event","name":"Transfer","inputs":[{"name":"from","type":"address","indexed":true,"internalType":"address"},{"name":"to","type":"address","indexed":true,"internalType":"address"},{"name":"value","type":"uint256","indexed":false,"internalType":"uint256"}],"anonymous":false},{"type":"error","name":"ERC20InsufficientAllowance","inputs":[{"name":"spender","type":"address","internalType":"address"},{"name":"allowance","type":"uint256","internalType":"uint256"},{"name":"needed","type":"uint256","internalType":"uint256"}]},{"type":"error","name":"ERC20InsufficientBalance","inputs":[{"name":"sender","type":"address","internalType":"address"},{"name":"balance","type":"uint256","internalType":"uint256"},{"name":"needed","type":"uint256","internalType":"uint256"}]},{"type":"error","name":"ERC20InvalidApprover","inputs":[{"name":"approver","type":"address","internalType":"address"}]},{"type":"error","name":"ERC20InvalidReceiver","inputs":[{"name":"receiver","type":"address","internalType":"address"}]},{"type":"error","name":"ERC20InvalidSender","inputs":[{"name":"sender","type":"address","internalType":"address"}]},{"type":"error","name":"ERC20InvalidSpender","inputs":[{"name":"spender","type":"address","internalType":"address"}]},{"type":"error","name":"OwnableInvalidOwner","inputs":[{"name":"owner","type":"address","internalType":"address"}]},{"type":"error","name":"OwnableUnauthorizedAccount","inputs":[{"name":"account","type":"address","internalType":"address"}]}],"bytecode":{"object":"0x608060405260056006556005600755348015610019575f5ffd5b5060405161257c38038061257c833981810160405281019061003b91906108cd565b336040518060400160405280600a81526020017f434c415720546f6b656e000000000000000000000000000000000000000000008152506040518060400160405280600481526020017f434c41570000000000000000000000000000000000000000000000000000000081525081600390816100b79190610b46565b5080600490816100c79190610b46565b5050505f73ffffffffffffffffffffffffffffffffffffffff168173ffffffffffffffffffffffffffffffffffffffff160361013a575f6040517f1e4fbdf70000000000000000000000000000000000000000000000000000000081526004016101319190610c24565b60405180910390fd5b6101498161025660201b60201c565b508060085f6101000a81548173ffffffffffffffffffffffffffffffffffffffff021916908373ffffffffffffffffffffffffffffffffffffffff1602179055506101a6336b033b2e3c9fd0803ce800000061031960201b60201c565b600160095f3373ffffffffffffffffffffffffffffffffffffffff1673ffffffffffffffffffffffffffffffffffffffff1681526020019081526020015f205f6101000a81548160ff021916908315150217905550600160095f3073ffffffffffffffffffffffffffffffffffffffff1673ffffffffffffffffffffffffffffffffffffffff1681526020019081526020015f205f6101000a81548160ff02191690831515021790555050610e00565b5f60055f9054906101000a900473ffffffffffffffffffffffffffffffffffffffff1690508160055f6101000a81548173ffffffffffffffffffffffffffffffffffffffff021916908373ffffffffffffffffffffffffffffffffffffffff1602179055508173ffffffffffffffffffffffffffffffffffffffff168173ffffffffffffffffffffffffffffffffffffffff167f8be0079c531659141344cd1fd0a4f28419497f9722a3daafe3b4186f6b6457e060405160405180910390a35050565b5f73ffffffffffffffffffffffffffffffffffffffff168273ffffffffffffffffffffffffffffffffffffffff1603610389575f6040517fec442f050000000000000000000000000000000000000000000000000000000081526004016103809190610c24565b60405180910390fd5b61039a5f838361039e60201b60201c565b5050565b5f5f905060095f8573ffffffffffffffffffffffffffffffffffffffff1673ffffffffffffffffffffffffffffffffffffffff1681526020019081526020015f205f9054906101000a900460ff16158015610440575060095f8473ffffffffffffffffffffffffffffffffffffffff1673ffffffffffffffffffffffffffffffffffffffff1681526020019081526020015f205f9054906101000a900460ff16155b156105055761045361062e60201b60201c565b73ffffffffffffffffffffffffffffffffffffffff168473ffffffffffffffffffffffffffffffffffffffff16036104a6576064600754836104959190610c6a565b61049f9190610cd8565b9050610504565b6104b461062e60201b60201c565b73ffffffffffffffffffffffffffffffffffffffff168373ffffffffffffffffffffffffffffffffffffffff1603610503576064600654836104f69190610c6a565b6105009190610cd8565b90505b5b5b5f811115610616575f606460288361051d9190610c6a565b6105279190610cd8565b90505f60646028846105399190610c6a565b6105439190610cd8565b90505f60646014856105559190610c6a565b61055f9190610cd8565b90506105938760085f9054906101000a900473ffffffffffffffffffffffffffffffffffffffff168461065660201b60201c565b6105a68761dead8361065660201b60201c565b6105b787308561065660201b60201c565b7ffd3bc8cbcb80e2c149c0afd0c43c5481efe524348d615ffb006c32e490f60add8383836040516105ea93929190610d17565b60405180910390a161060e878786886106039190610d4c565b61065660201b60201c565b505050610628565b61062784848461065660201b60201c565b5b50505050565b5f60055f9054906101000a900473ffffffffffffffffffffffffffffffffffffffff16905090565b5f73ffffffffffffffffffffffffffffffffffffffff168373ffffffffffffffffffffffffffffffffffffffff16036106a6578060025f82825461069a9190610d7f565b92505081905550610774565b5f5f5f8573ffffffffffffffffffffffffffffffffffffffff1673ffffffffffffffffffffffffffffffffffffffff1681526020019081526020015f205490508181101561072f578381836040517fe450d38c00000000000000000000000000000000000000000000000000000000815260040161072693929190610db2565b60405180910390fd5b8181035f5f8673ffffffffffffffffffffffffffffffffffffffff1673ffffffffffffffffffffffffffffffffffffffff1681526020019081526020015f2081905550505b5f73ffffffffffffffffffffffffffffffffffffffff168273ffffffffffffffffffffffffffffffffffffffff16036107bb578060025f8282540392505081905550610805565b805f5f8473ffffffffffffffffffffffffffffffffffffffff1673ffffffffffffffffffffffffffffffffffffffff1681526020019081526020015f205f82825401925050819055505b8173ffffffffffffffffffffffffffffffffffffffff168373ffffffffffffffffffffffffffffffffffffffff167fddf252ad1be2c89b69c2b068fc378daa952ba7f163c4a11628f55a4df523b3ef836040516108629190610de7565b60405180910390a3505050565b5f5ffd5b5f73ffffffffffffffffffffffffffffffffffffffff82169050919050565b5f61089c82610873565b9050919050565b6108ac81610892565b81146108b6575f5ffd5b50565b5f815190506108c7816108a3565b92915050565b5f602082840312156108e2576108e161086f565b5b5f6108ef848285016108b9565b91505092915050565b5f81519050919050565b7f4e487b71000000000000000000000000000000000000000000000000000000005f52604160045260245ffd5b7f4e487b71000000000000000000000000000000000000000000000000000000005f52602260045260245ffd5b5f600282049050600182168061097357607f821691505b6020821081036109865761098561092f565b5b50919050565b5f819050815f5260205f209050919050565b5f6020601f8301049050919050565b5f82821b905092915050565b5f600883026109e87fffffffffffffffffffffffffffffffffffffffffffffffffffffffffffffffff826109ad565b6109f286836109ad565b95508019841693508086168417925050509392505050565b5f819050919050565b5f819050919050565b5f610a36610a31610a2c84610a0a565b610a13565b610a0a565b9050919050565b5f819050919050565b610a4f83610a1c565b610a63610a5b82610a3d565b8484546109b9565b825550505050565b5f5f905090565b610a7a610a6b565b610a85818484610a46565b505050565b5f5b82811015610aab57610aa05f828401610a72565b600181019050610a8c565b505050565b601f821115610afe5782821115610afd57610aca8161098c565b610ad38361099e565b610adc8561099e565b6020861015610ae9575f90505b808301610af882840382610a8a565b505050505b5b505050565b5f82821c905092915050565b5f610b1e5f1984600802610b03565b1980831691505092915050565b5f610b368383610b0f565b9150826002028217905092915050565b610b4f826108f8565b67ffffffffffffffff811115610b6857610b67610902565b5b610b72825461095c565b610b7d828285610ab0565b5f60209050601f831160018114610bae575f8415610b9c578287015190505b610ba68582610b2b565b865550610c0d565b601f198416610bbc8661098c565b5f5b82811015610be357848901518255600182019150602085019450602081019050610bbe565b86831015610c005784890151610bfc601f891682610b0f565b8355505b6001600288020188555050505b505050505050565b610c1e81610892565b82525050565b5f602082019050610c375f830184610c15565b92915050565b7f4e487b71000000000000000000000000000000000000000000000000000000005f52601160045260245ffd5b5f610c7482610a0a565b9150610c7f83610a0a565b9250828202610c8d81610a0a565b91508282048414831517610ca457610ca3610c3d565b5b5092915050565b7f4e487b71000000000000000000000000000000000000000000000000000000005f52601260045260245ffd5b5f610ce282610a0a565b9150610ced83610a0a565b925082610cfd57610cfc610cab565b5b828204905092915050565b610d1181610a0a565b82525050565b5f606082019050610d2a5f830186610d08565b610d376020830185610d08565b610d446040830184610d08565b949350505050565b5f610d5682610a0a565b9150610d6183610a0a565b9250828203905081811115610d7957610d78610c3d565b5b92915050565b5f610d8982610a0a565b9150610d9483610a0a565b9250828201905080821115610dac57610dab610c3d565b5b92915050565b5f606082019050610dc55f830186610c15565b610dd26020830185610d08565b610ddf6040830184610d08565b949350505050565b5f602082019050610dfa5f830184610d08565b92915050565b61176f80610e0d5f395ff3fe608060405234801561000f575f5ffd5b506004361061012a575f3560e01c80638da5cb5b116100ab578063c6a306471161006f578063c6a3064714610322578063cb4ca6311461033e578063cc1776d31461036e578063dd62ed3e1461038c578063f2fde38b146103bc5761012a565b80638da5cb5b1461027a578063902d55a51461029857806395d89b41146102b6578063a01c3483146102d4578063a9059cbb146102f25761012a565b80634f7041a5116100f25780634f7041a5146101e8578063667f65261461020657806370a0823114610222578063715018a61461025257806375f0a8741461025c5761012a565b806306fdde031461012e578063095ea7b31461014c57806318160ddd1461017c57806323b872dd1461019a578063313ce567146101ca575b5f5ffd5b6101366103d8565b60405161014391906111d4565b60405180910390f35b61016660048036038101906101619190611285565b610468565b60405161017391906112dd565b60405180910390f35b61018461048a565b6040516101919190611305565b60405180910390f35b6101b460048036038101906101af919061131e565b610493565b6040516101c191906112dd565b60405180910390f35b6101d26104c1565b6040516101df9190611389565b60405180910390f35b6101f06104c9565b6040516101fd9190611305565b60405180910390f35b610220600480360381019061021b91906113a2565b6104cf565b005b61023c600480360381019061023791906113e0565b61053a565b6040516102499190611305565b60405180910390f35b61025a61057f565b005b610264610592565b604051610271919061141a565b60405180910390f35b6102826105b7565b60405161028f919061141a565b60405180910390f35b6102a06105df565b6040516102ad9190611305565b60405180910390f35b6102be6105ef565b6040516102cb91906111d4565b60405180910390f35b6102dc61067f565b6040516102e9919061141a565b60405180910390f35b61030c60048036038101906103079190611285565b610685565b60405161031991906112dd565b60405180910390f35b61033c6004803603810190610337919061145d565b6106a7565b005b610358600480360381019061035391906113e0565b610707565b60405161036591906112dd565b60405180910390f35b610376610724565b6040516103839190611305565b60405180910390f35b6103a660048036038101906103a1919061149b565b61072a565b6040516103b39190611305565b60405180910390f35b6103d660048036038101906103d191906113e0565b6107ac565b005b6060600380546103e790611506565b80601f016020809104026020016040519081016040528092919081815260200182805461041390611506565b801561045e5780601f106104355761010080835404028352916020019161045e565b820191905f5260205f20905b81548152906001019060200180831161044157829003601f168201915b5050505050905090565b5f5f610472610830565b905061047f818585610837565b600191505092915050565b5f600254905090565b5f5f61049d610830565b90506104aa858285610849565b6104b58585856108dc565b60019150509392505050565b5f6012905090565b60065481565b6104d76109cc565b600a82111580156104e95750600a8111155b610528576040517f08c379a000000000000000000000000000000000000000000000000000000000815260040161051f90611580565b60405180910390fd5b81600681905550806007819055505050565b5f5f5f8373ffffffffffffffffffffffffffffffffffffffff1673ffffffffffffffffffffffffffffffffffffffff1681526020019081526020015f20549050919050565b6105876109cc565b6105905f610a53565b565b60085f9054906101000a900473ffffffffffffffffffffffffffffffffffffffff1681565b5f60055f9054906101000a900473ffffffffffffffffffffffffffffffffffffffff16905090565b6b033b2e3c9fd0803ce800000081565b6060600480546105fe90611506565b80601f016020809104026020016040519081016040528092919081815260200182805461062a90611506565b80156106755780601f1061064c57610100808354040283529160200191610675565b820191905f5260205f20905b81548152906001019060200180831161065857829003601f168201915b5050505050905090565b61dead81565b5f5f61068f610830565b905061069c8185856108dc565b600191505092915050565b6106af6109cc565b8060095f8473ffffffffffffffffffffffffffffffffffffffff1673ffffffffffffffffffffffffffffffffffffffff1681526020019081526020015f205f6101000a81548160ff0219169083151502179055505050565b6009602052805f5260405f205f915054906101000a900460ff1681565b60075481565b5f60015f8473ffffffffffffffffffffffffffffffffffffffff1673ffffffffffffffffffffffffffffffffffffffff1681526020019081526020015f205f8373ffffffffffffffffffffffffffffffffffffffff1673ffffffffffffffffffffffffffffffffffffffff1681526020019081526020015f2054905092915050565b6107b46109cc565b5f73ffffffffffffffffffffffffffffffffffffffff168173ffffffffffffffffffffffffffffffffffffffff1603610824575f6040517f1e4fbdf700000000000000000000000000000000000000000000000000000000815260040161081b919061141a565b60405180910390fd5b61082d81610a53565b50565b5f33905090565b6108448383836001610b16565b505050565b5f610854848461072a565b90507fffffffffffffffffffffffffffffffffffffffffffffffffffffffffffffffff8110156108d657818110156108c7578281836040517ffb8f41b20000000000000000000000000000000000000000000000000000000081526004016108be9392919061159e565b60405180910390fd5b6108d584848484035f610b16565b5b50505050565b5f73ffffffffffffffffffffffffffffffffffffffff168373ffffffffffffffffffffffffffffffffffffffff160361094c575f6040517f96c6fd1e000000000000000000000000000000000000000000000000000000008152600401610943919061141a565b60405180910390fd5b5f73ffffffffffffffffffffffffffffffffffffffff168273ffffffffffffffffffffffffffffffffffffffff16036109bc575f6040517fec442f050000000000000000000000000000000000000000000000000000000081526004016109b3919061141a565b60405180910390fd5b6109c7838383610ce5565b505050565b6109d4610830565b73ffffffffffffffffffffffffffffffffffffffff166109f26105b7565b73ffffffffffffffffffffffffffffffffffffffff1614610a5157610a15610830565b6040517f118cdaa7000000000000000000000000000000000000000000000000000000008152600401610a48919061141a565b60405180910390fd5b565b5f60055f9054906101000a900473ffffffffffffffffffffffffffffffffffffffff1690508160055f6101000a81548173ffffffffffffffffffffffffffffffffffffffff021916908373ffffffffffffffffffffffffffffffffffffffff1602179055508173ffffffffffffffffffffffffffffffffffffffff168173ffffffffffffffffffffffffffffffffffffffff167f8be0079c531659141344cd1fd0a4f28419497f9722a3daafe3b4186f6b6457e060405160405180910390a35050565b5f73ffffffffffffffffffffffffffffffffffffffff168473ffffffffffffffffffffffffffffffffffffffff1603610b86575f6040517fe602df05000000000000000000000000000000000000000000000000000000008152600401610b7d919061141a565b60405180910390fd5b5f73ffffffffffffffffffffffffffffffffffffffff168373ffffffffffffffffffffffffffffffffffffffff1603610bf6575f6040517f94280d62000000000000000000000000000000000000000000000000000000008152600401610bed919061141a565b60405180910390fd5b8160015f8673ffffffffffffffffffffffffffffffffffffffff1673ffffffffffffffffffffffffffffffffffffffff1681526020019081526020015f205f8573ffffffffffffffffffffffffffffffffffffffff1673ffffffffffffffffffffffffffffffffffffffff1681526020019081526020015f20819055508015610cdf578273ffffffffffffffffffffffffffffffffffffffff168473ffffffffffffffffffffffffffffffffffffffff167f8c5be1e5ebec7d5bd14f71427d1e84f3dd0314c0f7b2291e5b200ac8c7c3b92584604051610cd69190611305565b60405180910390a35b50505050565b5f5f905060095f8573ffffffffffffffffffffffffffffffffffffffff1673ffffffffffffffffffffffffffffffffffffffff1681526020019081526020015f205f9054906101000a900460ff16158015610d87575060095f8473ffffffffffffffffffffffffffffffffffffffff1673ffffffffffffffffffffffffffffffffffffffff1681526020019081526020015f205f9054906101000a900460ff16155b15610e4057610d946105b7565b73ffffffffffffffffffffffffffffffffffffffff168473ffffffffffffffffffffffffffffffffffffffff1603610de757606460075483610dd69190611600565b610de0919061166e565b9050610e3f565b610def6105b7565b73ffffffffffffffffffffffffffffffffffffffff168373ffffffffffffffffffffffffffffffffffffffff1603610e3e57606460065483610e319190611600565b610e3b919061166e565b90505b5b5b5f811115610f39575f6064602883610e589190611600565b610e62919061166e565b90505f6064602884610e749190611600565b610e7e919061166e565b90505f6064601485610e909190611600565b610e9a919061166e565b9050610ec88760085f9054906101000a900473ffffffffffffffffffffffffffffffffffffffff1684610f4b565b610ed58761dead83610f4b565b610ee0873085610f4b565b7ffd3bc8cbcb80e2c149c0afd0c43c5481efe524348d615ffb006c32e490f60add838383604051610f139392919061169e565b60405180910390a1610f3187878688610f2c91906116d3565b610f4b565b505050610f45565b610f44848484610f4b565b5b50505050565b5f73ffffffffffffffffffffffffffffffffffffffff168373ffffffffffffffffffffffffffffffffffffffff1603610f9b578060025f828254610f8f9190611706565b92505081905550611069565b5f5f5f8573ffffffffffffffffffffffffffffffffffffffff1673ffffffffffffffffffffffffffffffffffffffff1681526020019081526020015f2054905081811015611024578381836040517fe450d38c00000000000000000000000000000000000000000000000000000000815260040161101b9392919061159e565b60405180910390fd5b8181035f5f8673ffffffffffffffffffffffffffffffffffffffff1673ffffffffffffffffffffffffffffffffffffffff1681526020019081526020015f2081905550505b5f73ffffffffffffffffffffffffffffffffffffffff168273ffffffffffffffffffffffffffffffffffffffff16036110b0578060025f82825403925050819055506110fa565b805f5f8473ffffffffffffffffffffffffffffffffffffffff1673ffffffffffffffffffffffffffffffffffffffff1681526020019081526020015f205f82825401925050819055505b8173ffffffffffffffffffffffffffffffffffffffff168373ffffffffffffffffffffffffffffffffffffffff167fddf252ad1be2c89b69c2b068fc378daa952ba7f163c4a11628f55a4df523b3ef836040516111579190611305565b60405180910390a3505050565b5f81519050919050565b5f82825260208201905092915050565b8281835e5f83830152505050565b5f601f19601f8301169050919050565b5f6111a682611164565b6111b0818561116e565b93506111c081856020860161117e565b6111c98161118c565b840191505092915050565b5f6020820190508181035f8301526111ec818461119c565b905092915050565b5f5ffd5b5f73ffffffffffffffffffffffffffffffffffffffff82169050919050565b5f611221826111f8565b9050919050565b61123181611217565b811461123b575f5ffd5b50565b5f8135905061124c81611228565b92915050565b5f819050919050565b61126481611252565b811461126e575f5ffd5b50565b5f8135905061127f8161125b565b92915050565b5f5f6040838503121561129b5761129a6111f4565b5b5f6112a88582860161123e565b92505060206112b985828601611271565b9150509250929050565b5f8115159050919050565b6112d7816112c3565b82525050565b5f6020820190506112f05f8301846112ce565b92915050565b6112ff81611252565b82525050565b5f6020820190506113185f8301846112f6565b92915050565b5f5f5f60608486031215611335576113346111f4565b5b5f6113428682870161123e565b93505060206113538682870161123e565b925050604061136486828701611271565b9150509250925092565b5f60ff82169050919050565b6113838161136e565b82525050565b5f60208201905061139c5f83018461137a565b92915050565b5f5f604083850312156113b8576113b76111f4565b5b5f6113c585828601611271565b92505060206113d685828601611271565b9150509250929050565b5f602082840312156113f5576113f46111f4565b5b5f6114028482850161123e565b91505092915050565b61141481611217565b82525050565b5f60208201905061142d5f83018461140b565b92915050565b61143c816112c3565b8114611446575f5ffd5b50565b5f8135905061145781611433565b92915050565b5f5f60408385031215611473576114726111f4565b5b5f6114808582860161123e565b925050602061149185828601611449565b9150509250929050565b5f5f604083850312156114b1576114b06111f4565b5b5f6114be8582860161123e565b92505060206114cf8582860161123e565b9150509250929050565b7f4e487b71000000000000000000000000000000000000000000000000000000005f52602260045260245ffd5b5f600282049050600182168061151d57607f821691505b6020821081036115305761152f6114d9565b5b50919050565b7f5461782063616e6e6f74206578636565642031302500000000000000000000005f82015250565b5f61156a60158361116e565b915061157582611536565b602082019050919050565b5f6020820190508181035f8301526115978161155e565b9050919050565b5f6060820190506115b15f83018661140b565b6115be60208301856112f6565b6115cb60408301846112f6565b949350505050565b7f4e487b71000000000000000000000000000000000000000000000000000000005f52601160045260245ffd5b5f61160a82611252565b915061161583611252565b925082820261162381611252565b9150828204841483151761163a576116396115d3565b5b5092915050565b7f4e487b71000000000000000000000000000000000000000000000000000000005f52601260045260245ffd5b5f61167882611252565b915061168383611252565b92508261169357611692611641565b5b828204905092915050565b5f6060820190506116b15f8301866112f6565b6116be60208301856112f6565b6116cb60408301846112f6565b949350505050565b5f6116dd82611252565b91506116e883611252565b9250828203905081811115611700576116ff6115d3565b5b92915050565b5f61171082611252565b915061171b83611252565b9250828201905080821115611733576117326115d3565b5b9291505056fea26469706673582212208a64f75207a077779e85e5e30a7cc185eb83b004a41214aad8133bf3b20f8aad64736f6c63430008210033","linkReferences":{}},"methodIdentifiers":{"DEAD_WALLET()":"a01c3483","TOTAL_SUPPLY()":"902d55a5","allowance(address,address)":"dd62ed3e","approve(address,uint256)":"095ea7b3","balanceOf(address)":"70a08231","buyTax()":"4f7041a5","decimals()":"313ce567","excludeFromTax(address,bool)":"c6a30647","isExcludedFromTax(address)":"cb4ca631","marketingWallet()":"75f0a874","name()":"06fdde03","owner()":"8da5cb5b","renounceOwnership()":"715018a6","sellTax()":"cc1776d3","setTax(uint256,uint256)":"667f6526","symbol()":"95d89b41","totalSupply()":"18160ddd","transfer(address,uint256)":"a9059cbb","transferFrom(address,address,uint256)":"23b872dd","transferOwnership(address)":"f2fde38b"},"id":6}